{
	"Solidityprogramming/ifelseInsolidity.sol": {
		"ifelse": {
			"abi": [
				{
					"inputs": [
						{
							"internalType": "uint256",
							"name": "_num",
							"type": "uint256"
						}
					],
					"name": "get",
					"outputs": [
						{
							"internalType": "string",
							"name": "",
							"type": "string"
						}
					],
					"stateMutability": "nonpayable",
					"type": "function"
				},
				{
					"inputs": [],
					"name": "myNum",
					"outputs": [
						{
							"internalType": "uint256",
							"name": "",
							"type": "uint256"
						}
					],
					"stateMutability": "view",
					"type": "function"
				},
				{
					"inputs": [],
					"name": "myString",
					"outputs": [
						{
							"internalType": "string",
							"name": "",
							"type": "string"
						}
					],
					"stateMutability": "view",
					"type": "function"
				}
			],
			"devdoc": {
				"kind": "dev",
				"methods": {},
				"version": 1
			},
			"evm": {
				"assembly": "    /* \"Solidityprogramming/ifelseInsolidity.sol\":30:335  contract ifelse{... */\n  mstore(0x40, 0x80)\n    /* \"Solidityprogramming/ifelseInsolidity.sol\":77:78  5 */\n  0x05\n    /* \"Solidityprogramming/ifelseInsolidity.sol\":54:78  uint256 public myNum = 5 */\n  0x00\n  sstore\n    /* \"Solidityprogramming/ifelseInsolidity.sol\":30:335  contract ifelse{... */\n  callvalue\n  dup1\n  iszero\n  tag_1\n  jumpi\n  0x00\n  dup1\n  revert\ntag_1:\n  pop\n  dataSize(sub_0)\n  dup1\n  dataOffset(sub_0)\n  0x00\n  codecopy\n  0x00\n  return\nstop\n\nsub_0: assembly {\n        /* \"Solidityprogramming/ifelseInsolidity.sol\":30:335  contract ifelse{... */\n      mstore(0x40, 0x80)\n      callvalue\n      dup1\n      iszero\n      tag_1\n      jumpi\n      0x00\n      dup1\n      revert\n    tag_1:\n      pop\n      jumpi(tag_2, lt(calldatasize, 0x04))\n      shr(0xe0, calldataload(0x00))\n      dup1\n      0x492bfa18\n      eq\n      tag_3\n      jumpi\n      dup1\n      0x9507d39a\n      eq\n      tag_4\n      jumpi\n      dup1\n      0xd4da005a\n      eq\n      tag_5\n      jumpi\n    tag_2:\n      0x00\n      dup1\n      revert\n        /* \"Solidityprogramming/ifelseInsolidity.sol\":85:107  string public myString */\n    tag_3:\n      tag_6\n      tag_7\n      jump\t// in\n    tag_6:\n      mload(0x40)\n      tag_8\n      swap2\n      swap1\n      tag_9\n      jump\t// in\n    tag_8:\n      mload(0x40)\n      dup1\n      swap2\n      sub\n      swap1\n      return\n        /* \"Solidityprogramming/ifelseInsolidity.sol\":116:332  function get(uint256 _num) public returns(string memory){... */\n    tag_4:\n      tag_10\n      0x04\n      dup1\n      calldatasize\n      sub\n      dup2\n      add\n      swap1\n      tag_11\n      swap2\n      swap1\n      tag_12\n      jump\t// in\n    tag_11:\n      tag_13\n      jump\t// in\n    tag_10:\n      mload(0x40)\n      tag_14\n      swap2\n      swap1\n      tag_9\n      jump\t// in\n    tag_14:\n      mload(0x40)\n      dup1\n      swap2\n      sub\n      swap1\n      return\n        /* \"Solidityprogramming/ifelseInsolidity.sol\":54:78  uint256 public myNum = 5 */\n    tag_5:\n      tag_15\n      tag_16\n      jump\t// in\n    tag_15:\n      mload(0x40)\n      tag_17\n      swap2\n      swap1\n      tag_18\n      jump\t// in\n    tag_17:\n      mload(0x40)\n      dup1\n      swap2\n      sub\n      swap1\n      return\n        /* \"Solidityprogramming/ifelseInsolidity.sol\":85:107  string public myString */\n    tag_7:\n      0x01\n      dup1\n      sload\n      tag_19\n      swap1\n      tag_20\n      jump\t// in\n    tag_19:\n      dup1\n      0x1f\n      add\n      0x20\n      dup1\n      swap2\n      div\n      mul\n      0x20\n      add\n      mload(0x40)\n      swap1\n      dup2\n      add\n      0x40\n      mstore\n      dup1\n      swap3\n      swap2\n      swap1\n      dup2\n      dup2\n      mstore\n      0x20\n      add\n      dup3\n      dup1\n      sload\n      tag_21\n      swap1\n      tag_20\n      jump\t// in\n    tag_21:\n      dup1\n      iszero\n      tag_22\n      jumpi\n      dup1\n      0x1f\n      lt\n      tag_23\n      jumpi\n      0x0100\n      dup1\n      dup4\n      sload\n      div\n      mul\n      dup4\n      mstore\n      swap2\n      0x20\n      add\n      swap2\n      jump(tag_22)\n    tag_23:\n      dup3\n      add\n      swap2\n      swap1\n      0x00\n      mstore\n      keccak256(0x00, 0x20)\n      swap1\n    tag_24:\n      dup2\n      sload\n      dup2\n      mstore\n      swap1\n      0x01\n      add\n      swap1\n      0x20\n      add\n      dup1\n      dup4\n      gt\n      tag_24\n      jumpi\n      dup3\n      swap1\n      sub\n      0x1f\n      and\n      dup3\n      add\n      swap2\n    tag_22:\n      pop\n      pop\n      pop\n      pop\n      pop\n      dup2\n      jump\t// out\n        /* \"Solidityprogramming/ifelseInsolidity.sol\":116:332  function get(uint256 _num) public returns(string memory){... */\n    tag_13:\n        /* \"Solidityprogramming/ifelseInsolidity.sol\":158:171  string memory */\n      0x60\n        /* \"Solidityprogramming/ifelseInsolidity.sol\":197:198  5 */\n      0x05\n        /* \"Solidityprogramming/ifelseInsolidity.sol\":189:193  _num */\n      dup3\n        /* \"Solidityprogramming/ifelseInsolidity.sol\":189:198  _num == 5 */\n      sub\n        /* \"Solidityprogramming/ifelseInsolidity.sol\":185:325  if (_num == 5){... */\n      tag_26\n      jumpi\n        /* \"Solidityprogramming/ifelseInsolidity.sol\":214:254  myString = \"Hey the value of muNum is 5\" */\n      mload(0x40)\n      dup1\n      0x40\n      add\n      0x40\n      mstore\n      dup1\n      0x1b\n      dup2\n      mstore\n      0x20\n      add\n      0x486579207468652076616c7565206f66206d754e756d20697320350000000000\n      dup2\n      mstore\n      pop\n        /* \"Solidityprogramming/ifelseInsolidity.sol\":214:222  myString */\n      0x01\n        /* \"Solidityprogramming/ifelseInsolidity.sol\":214:254  myString = \"Hey the value of muNum is 5\" */\n      swap1\n      dup2\n      tag_27\n      swap2\n      swap1\n      tag_28\n      jump\t// in\n    tag_27:\n      pop\n        /* \"Solidityprogramming/ifelseInsolidity.sol\":185:325  if (_num == 5){... */\n      jump(tag_29)\n    tag_26:\n        /* \"Solidityprogramming/ifelseInsolidity.sol\":295:313  myString = \"Not 5\" */\n      mload(0x40)\n      dup1\n      0x40\n      add\n      0x40\n      mstore\n      dup1\n      0x05\n      dup2\n      mstore\n      0x20\n      add\n      0x4e6f742035000000000000000000000000000000000000000000000000000000\n      dup2\n      mstore\n      pop\n        /* \"Solidityprogramming/ifelseInsolidity.sol\":295:303  myString */\n      0x01\n        /* \"Solidityprogramming/ifelseInsolidity.sol\":295:313  myString = \"Not 5\" */\n      swap1\n      dup2\n      tag_30\n      swap2\n      swap1\n      tag_28\n      jump\t// in\n    tag_30:\n      pop\n        /* \"Solidityprogramming/ifelseInsolidity.sol\":185:325  if (_num == 5){... */\n    tag_29:\n        /* \"Solidityprogramming/ifelseInsolidity.sol\":116:332  function get(uint256 _num) public returns(string memory){... */\n      swap2\n      swap1\n      pop\n      jump\t// out\n        /* \"Solidityprogramming/ifelseInsolidity.sol\":54:78  uint256 public myNum = 5 */\n    tag_16:\n      sload(0x00)\n      dup2\n      jump\t// out\n        /* \"#utility.yul\":7:106   */\n    tag_31:\n        /* \"#utility.yul\":59:65   */\n      0x00\n        /* \"#utility.yul\":93:98   */\n      dup2\n        /* \"#utility.yul\":87:99   */\n      mload\n        /* \"#utility.yul\":77:99   */\n      swap1\n      pop\n        /* \"#utility.yul\":7:106   */\n      swap2\n      swap1\n      pop\n      jump\t// out\n        /* \"#utility.yul\":112:281   */\n    tag_32:\n        /* \"#utility.yul\":196:207   */\n      0x00\n        /* \"#utility.yul\":230:236   */\n      dup3\n        /* \"#utility.yul\":225:228   */\n      dup3\n        /* \"#utility.yul\":218:237   */\n      mstore\n        /* \"#utility.yul\":270:274   */\n      0x20\n        /* \"#utility.yul\":265:268   */\n      dup3\n        /* \"#utility.yul\":261:275   */\n      add\n        /* \"#utility.yul\":246:275   */\n      swap1\n      pop\n        /* \"#utility.yul\":112:281   */\n      swap3\n      swap2\n      pop\n      pop\n      jump\t// out\n        /* \"#utility.yul\":287:533   */\n    tag_33:\n        /* \"#utility.yul\":368:369   */\n      0x00\n        /* \"#utility.yul\":378:491   */\n    tag_64:\n        /* \"#utility.yul\":392:398   */\n      dup4\n        /* \"#utility.yul\":389:390   */\n      dup2\n        /* \"#utility.yul\":386:399   */\n      lt\n        /* \"#utility.yul\":378:491   */\n      iszero\n      tag_66\n      jumpi\n        /* \"#utility.yul\":477:478   */\n      dup1\n        /* \"#utility.yul\":472:475   */\n      dup3\n        /* \"#utility.yul\":468:479   */\n      add\n        /* \"#utility.yul\":462:480   */\n      mload\n        /* \"#utility.yul\":458:459   */\n      dup2\n        /* \"#utility.yul\":453:456   */\n      dup5\n        /* \"#utility.yul\":449:460   */\n      add\n        /* \"#utility.yul\":442:481   */\n      mstore\n        /* \"#utility.yul\":414:416   */\n      0x20\n        /* \"#utility.yul\":411:412   */\n      dup2\n        /* \"#utility.yul\":407:417   */\n      add\n        /* \"#utility.yul\":402:417   */\n      swap1\n      pop\n        /* \"#utility.yul\":378:491   */\n      jump(tag_64)\n    tag_66:\n        /* \"#utility.yul\":525:526   */\n      0x00\n        /* \"#utility.yul\":516:522   */\n      dup5\n        /* \"#utility.yul\":511:514   */\n      dup5\n        /* \"#utility.yul\":507:523   */\n      add\n        /* \"#utility.yul\":500:527   */\n      mstore\n        /* \"#utility.yul\":349:533   */\n      pop\n        /* \"#utility.yul\":287:533   */\n      pop\n      pop\n      pop\n      jump\t// out\n        /* \"#utility.yul\":539:641   */\n    tag_34:\n        /* \"#utility.yul\":580:586   */\n      0x00\n        /* \"#utility.yul\":631:633   */\n      0x1f\n        /* \"#utility.yul\":627:634   */\n      not\n        /* \"#utility.yul\":622:624   */\n      0x1f\n        /* \"#utility.yul\":615:620   */\n      dup4\n        /* \"#utility.yul\":611:625   */\n      add\n        /* \"#utility.yul\":607:635   */\n      and\n        /* \"#utility.yul\":597:635   */\n      swap1\n      pop\n        /* \"#utility.yul\":539:641   */\n      swap2\n      swap1\n      pop\n      jump\t// out\n        /* \"#utility.yul\":647:1024   */\n    tag_35:\n        /* \"#utility.yul\":735:738   */\n      0x00\n        /* \"#utility.yul\":763:802   */\n      tag_69\n        /* \"#utility.yul\":796:801   */\n      dup3\n        /* \"#utility.yul\":763:802   */\n      tag_31\n      jump\t// in\n    tag_69:\n        /* \"#utility.yul\":818:889   */\n      tag_70\n        /* \"#utility.yul\":882:888   */\n      dup2\n        /* \"#utility.yul\":877:880   */\n      dup6\n        /* \"#utility.yul\":818:889   */\n      tag_32\n      jump\t// in\n    tag_70:\n        /* \"#utility.yul\":811:889   */\n      swap4\n      pop\n        /* \"#utility.yul\":898:963   */\n      tag_71\n        /* \"#utility.yul\":956:962   */\n      dup2\n        /* \"#utility.yul\":951:954   */\n      dup6\n        /* \"#utility.yul\":944:948   */\n      0x20\n        /* \"#utility.yul\":937:942   */\n      dup7\n        /* \"#utility.yul\":933:949   */\n      add\n        /* \"#utility.yul\":898:963   */\n      tag_33\n      jump\t// in\n    tag_71:\n        /* \"#utility.yul\":988:1017   */\n      tag_72\n        /* \"#utility.yul\":1010:1016   */\n      dup2\n        /* \"#utility.yul\":988:1017   */\n      tag_34\n      jump\t// in\n    tag_72:\n        /* \"#utility.yul\":983:986   */\n      dup5\n        /* \"#utility.yul\":979:1018   */\n      add\n        /* \"#utility.yul\":972:1018   */\n      swap2\n      pop\n        /* \"#utility.yul\":739:1024   */\n      pop\n        /* \"#utility.yul\":647:1024   */\n      swap3\n      swap2\n      pop\n      pop\n      jump\t// out\n        /* \"#utility.yul\":1030:1343   */\n    tag_9:\n        /* \"#utility.yul\":1143:1147   */\n      0x00\n        /* \"#utility.yul\":1181:1183   */\n      0x20\n        /* \"#utility.yul\":1170:1179   */\n      dup3\n        /* \"#utility.yul\":1166:1184   */\n      add\n        /* \"#utility.yul\":1158:1184   */\n      swap1\n      pop\n        /* \"#utility.yul\":1230:1239   */\n      dup2\n        /* \"#utility.yul\":1224:1228   */\n      dup2\n        /* \"#utility.yul\":1220:1240   */\n      sub\n        /* \"#utility.yul\":1216:1217   */\n      0x00\n        /* \"#utility.yul\":1205:1214   */\n      dup4\n        /* \"#utility.yul\":1201:1218   */\n      add\n        /* \"#utility.yul\":1194:1241   */\n      mstore\n        /* \"#utility.yul\":1258:1336   */\n      tag_74\n        /* \"#utility.yul\":1331:1335   */\n      dup2\n        /* \"#utility.yul\":1322:1328   */\n      dup5\n        /* \"#utility.yul\":1258:1336   */\n      tag_35\n      jump\t// in\n    tag_74:\n        /* \"#utility.yul\":1250:1336   */\n      swap1\n      pop\n        /* \"#utility.yul\":1030:1343   */\n      swap3\n      swap2\n      pop\n      pop\n      jump\t// out\n        /* \"#utility.yul\":1430:1547   */\n    tag_37:\n        /* \"#utility.yul\":1539:1540   */\n      0x00\n        /* \"#utility.yul\":1536:1537   */\n      dup1\n        /* \"#utility.yul\":1529:1541   */\n      revert\n        /* \"#utility.yul\":1676:1753   */\n    tag_39:\n        /* \"#utility.yul\":1713:1720   */\n      0x00\n        /* \"#utility.yul\":1742:1747   */\n      dup2\n        /* \"#utility.yul\":1731:1747   */\n      swap1\n      pop\n        /* \"#utility.yul\":1676:1753   */\n      swap2\n      swap1\n      pop\n      jump\t// out\n        /* \"#utility.yul\":1759:1881   */\n    tag_40:\n        /* \"#utility.yul\":1832:1856   */\n      tag_80\n        /* \"#utility.yul\":1850:1855   */\n      dup2\n        /* \"#utility.yul\":1832:1856   */\n      tag_39\n      jump\t// in\n    tag_80:\n        /* \"#utility.yul\":1825:1830   */\n      dup2\n        /* \"#utility.yul\":1822:1857   */\n      eq\n        /* \"#utility.yul\":1812:1875   */\n      tag_81\n      jumpi\n        /* \"#utility.yul\":1871:1872   */\n      0x00\n        /* \"#utility.yul\":1868:1869   */\n      dup1\n        /* \"#utility.yul\":1861:1873   */\n      revert\n        /* \"#utility.yul\":1812:1875   */\n    tag_81:\n        /* \"#utility.yul\":1759:1881   */\n      pop\n      jump\t// out\n        /* \"#utility.yul\":1887:2026   */\n    tag_41:\n        /* \"#utility.yul\":1933:1938   */\n      0x00\n        /* \"#utility.yul\":1971:1977   */\n      dup2\n        /* \"#utility.yul\":1958:1978   */\n      calldataload\n        /* \"#utility.yul\":1949:1978   */\n      swap1\n      pop\n        /* \"#utility.yul\":1987:2020   */\n      tag_83\n        /* \"#utility.yul\":2014:2019   */\n      dup2\n        /* \"#utility.yul\":1987:2020   */\n      tag_40\n      jump\t// in\n    tag_83:\n        /* \"#utility.yul\":1887:2026   */\n      swap3\n      swap2\n      pop\n      pop\n      jump\t// out\n        /* \"#utility.yul\":2032:2361   */\n    tag_12:\n        /* \"#utility.yul\":2091:2097   */\n      0x00\n        /* \"#utility.yul\":2140:2142   */\n      0x20\n        /* \"#utility.yul\":2128:2137   */\n      dup3\n        /* \"#utility.yul\":2119:2126   */\n      dup5\n        /* \"#utility.yul\":2115:2138   */\n      sub\n        /* \"#utility.yul\":2111:2143   */\n      slt\n        /* \"#utility.yul\":2108:2227   */\n      iszero\n      tag_85\n      jumpi\n        /* \"#utility.yul\":2146:2225   */\n      tag_86\n      tag_37\n      jump\t// in\n    tag_86:\n        /* \"#utility.yul\":2108:2227   */\n    tag_85:\n        /* \"#utility.yul\":2266:2267   */\n      0x00\n        /* \"#utility.yul\":2291:2344   */\n      tag_87\n        /* \"#utility.yul\":2336:2343   */\n      dup5\n        /* \"#utility.yul\":2327:2333   */\n      dup3\n        /* \"#utility.yul\":2316:2325   */\n      dup6\n        /* \"#utility.yul\":2312:2334   */\n      add\n        /* \"#utility.yul\":2291:2344   */\n      tag_41\n      jump\t// in\n    tag_87:\n        /* \"#utility.yul\":2281:2344   */\n      swap2\n      pop\n        /* \"#utility.yul\":2237:2354   */\n      pop\n        /* \"#utility.yul\":2032:2361   */\n      swap3\n      swap2\n      pop\n      pop\n      jump\t// out\n        /* \"#utility.yul\":2367:2485   */\n    tag_42:\n        /* \"#utility.yul\":2454:2478   */\n      tag_89\n        /* \"#utility.yul\":2472:2477   */\n      dup2\n        /* \"#utility.yul\":2454:2478   */\n      tag_39\n      jump\t// in\n    tag_89:\n        /* \"#utility.yul\":2449:2452   */\n      dup3\n        /* \"#utility.yul\":2442:2479   */\n      mstore\n        /* \"#utility.yul\":2367:2485   */\n      pop\n      pop\n      jump\t// out\n        /* \"#utility.yul\":2491:2713   */\n    tag_18:\n        /* \"#utility.yul\":2584:2588   */\n      0x00\n        /* \"#utility.yul\":2622:2624   */\n      0x20\n        /* \"#utility.yul\":2611:2620   */\n      dup3\n        /* \"#utility.yul\":2607:2625   */\n      add\n        /* \"#utility.yul\":2599:2625   */\n      swap1\n      pop\n        /* \"#utility.yul\":2635:2706   */\n      tag_91\n        /* \"#utility.yul\":2703:2704   */\n      0x00\n        /* \"#utility.yul\":2692:2701   */\n      dup4\n        /* \"#utility.yul\":2688:2705   */\n      add\n        /* \"#utility.yul\":2679:2685   */\n      dup5\n        /* \"#utility.yul\":2635:2706   */\n      tag_42\n      jump\t// in\n    tag_91:\n        /* \"#utility.yul\":2491:2713   */\n      swap3\n      swap2\n      pop\n      pop\n      jump\t// out\n        /* \"#utility.yul\":2719:2899   */\n    tag_43:\n        /* \"#utility.yul\":2767:2844   */\n      0x4e487b7100000000000000000000000000000000000000000000000000000000\n        /* \"#utility.yul\":2764:2765   */\n      0x00\n        /* \"#utility.yul\":2757:2845   */\n      mstore\n        /* \"#utility.yul\":2864:2868   */\n      0x22\n        /* \"#utility.yul\":2861:2862   */\n      0x04\n        /* \"#utility.yul\":2854:2869   */\n      mstore\n        /* \"#utility.yul\":2888:2892   */\n      0x24\n        /* \"#utility.yul\":2885:2886   */\n      0x00\n        /* \"#utility.yul\":2878:2893   */\n      revert\n        /* \"#utility.yul\":2905:3225   */\n    tag_20:\n        /* \"#utility.yul\":2949:2955   */\n      0x00\n        /* \"#utility.yul\":2986:2987   */\n      0x02\n        /* \"#utility.yul\":2980:2984   */\n      dup3\n        /* \"#utility.yul\":2976:2988   */\n      div\n        /* \"#utility.yul\":2966:2988   */\n      swap1\n      pop\n        /* \"#utility.yul\":3033:3034   */\n      0x01\n        /* \"#utility.yul\":3027:3031   */\n      dup3\n        /* \"#utility.yul\":3023:3035   */\n      and\n        /* \"#utility.yul\":3054:3072   */\n      dup1\n        /* \"#utility.yul\":3044:3125   */\n      tag_94\n      jumpi\n        /* \"#utility.yul\":3110:3114   */\n      0x7f\n        /* \"#utility.yul\":3102:3108   */\n      dup3\n        /* \"#utility.yul\":3098:3115   */\n      and\n        /* \"#utility.yul\":3088:3115   */\n      swap2\n      pop\n        /* \"#utility.yul\":3044:3125   */\n    tag_94:\n        /* \"#utility.yul\":3172:3174   */\n      0x20\n        /* \"#utility.yul\":3164:3170   */\n      dup3\n        /* \"#utility.yul\":3161:3175   */\n      lt\n        /* \"#utility.yul\":3141:3159   */\n      dup2\n        /* \"#utility.yul\":3138:3176   */\n      sub\n        /* \"#utility.yul\":3135:3219   */\n      tag_95\n      jumpi\n        /* \"#utility.yul\":3191:3209   */\n      tag_96\n      tag_43\n      jump\t// in\n    tag_96:\n        /* \"#utility.yul\":3135:3219   */\n    tag_95:\n        /* \"#utility.yul\":2956:3225   */\n      pop\n        /* \"#utility.yul\":2905:3225   */\n      swap2\n      swap1\n      pop\n      jump\t// out\n        /* \"#utility.yul\":3231:3411   */\n    tag_44:\n        /* \"#utility.yul\":3279:3356   */\n      0x4e487b7100000000000000000000000000000000000000000000000000000000\n        /* \"#utility.yul\":3276:3277   */\n      0x00\n        /* \"#utility.yul\":3269:3357   */\n      mstore\n        /* \"#utility.yul\":3376:3380   */\n      0x41\n        /* \"#utility.yul\":3373:3374   */\n      0x04\n        /* \"#utility.yul\":3366:3381   */\n      mstore\n        /* \"#utility.yul\":3400:3404   */\n      0x24\n        /* \"#utility.yul\":3397:3398   */\n      0x00\n        /* \"#utility.yul\":3390:3405   */\n      revert\n        /* \"#utility.yul\":3417:3558   */\n    tag_45:\n        /* \"#utility.yul\":3466:3470   */\n      0x00\n        /* \"#utility.yul\":3489:3492   */\n      dup2\n        /* \"#utility.yul\":3481:3492   */\n      swap1\n      pop\n        /* \"#utility.yul\":3512:3515   */\n      dup2\n        /* \"#utility.yul\":3509:3510   */\n      0x00\n        /* \"#utility.yul\":3502:3516   */\n      mstore\n        /* \"#utility.yul\":3546:3550   */\n      0x20\n        /* \"#utility.yul\":3543:3544   */\n      0x00\n        /* \"#utility.yul\":3533:3551   */\n      keccak256\n        /* \"#utility.yul\":3525:3551   */\n      swap1\n      pop\n        /* \"#utility.yul\":3417:3558   */\n      swap2\n      swap1\n      pop\n      jump\t// out\n        /* \"#utility.yul\":3564:3657   */\n    tag_46:\n        /* \"#utility.yul\":3601:3607   */\n      0x00\n        /* \"#utility.yul\":3648:3650   */\n      0x20\n        /* \"#utility.yul\":3643:3645   */\n      0x1f\n        /* \"#utility.yul\":3636:3641   */\n      dup4\n        /* \"#utility.yul\":3632:3646   */\n      add\n        /* \"#utility.yul\":3628:3651   */\n      div\n        /* \"#utility.yul\":3618:3651   */\n      swap1\n      pop\n        /* \"#utility.yul\":3564:3657   */\n      swap2\n      swap1\n      pop\n      jump\t// out\n        /* \"#utility.yul\":3663:3770   */\n    tag_47:\n        /* \"#utility.yul\":3707:3715   */\n      0x00\n        /* \"#utility.yul\":3757:3762   */\n      dup3\n        /* \"#utility.yul\":3751:3755   */\n      dup3\n        /* \"#utility.yul\":3747:3763   */\n      shl\n        /* \"#utility.yul\":3726:3763   */\n      swap1\n      pop\n        /* \"#utility.yul\":3663:3770   */\n      swap3\n      swap2\n      pop\n      pop\n      jump\t// out\n        /* \"#utility.yul\":3776:4169   */\n    tag_48:\n        /* \"#utility.yul\":3845:3851   */\n      0x00\n        /* \"#utility.yul\":3895:3896   */\n      0x08\n        /* \"#utility.yul\":3883:3893   */\n      dup4\n        /* \"#utility.yul\":3879:3897   */\n      mul\n        /* \"#utility.yul\":3918:4015   */\n      tag_102\n        /* \"#utility.yul\":3948:4014   */\n      0xffffffffffffffffffffffffffffffffffffffffffffffffffffffffffffffff\n        /* \"#utility.yul\":3937:3946   */\n      dup3\n        /* \"#utility.yul\":3918:4015   */\n      tag_47\n      jump\t// in\n    tag_102:\n        /* \"#utility.yul\":4036:4075   */\n      tag_103\n        /* \"#utility.yul\":4066:4074   */\n      dup7\n        /* \"#utility.yul\":4055:4064   */\n      dup4\n        /* \"#utility.yul\":4036:4075   */\n      tag_47\n      jump\t// in\n    tag_103:\n        /* \"#utility.yul\":4024:4075   */\n      swap6\n      pop\n        /* \"#utility.yul\":4108:4112   */\n      dup1\n        /* \"#utility.yul\":4104:4113   */\n      not\n        /* \"#utility.yul\":4097:4102   */\n      dup5\n        /* \"#utility.yul\":4093:4114   */\n      and\n        /* \"#utility.yul\":4084:4114   */\n      swap4\n      pop\n        /* \"#utility.yul\":4157:4161   */\n      dup1\n        /* \"#utility.yul\":4147:4155   */\n      dup7\n        /* \"#utility.yul\":4143:4162   */\n      and\n        /* \"#utility.yul\":4136:4141   */\n      dup5\n        /* \"#utility.yul\":4133:4163   */\n      or\n        /* \"#utility.yul\":4123:4163   */\n      swap3\n      pop\n        /* \"#utility.yul\":3852:4169   */\n      pop\n      pop\n        /* \"#utility.yul\":3776:4169   */\n      swap4\n      swap3\n      pop\n      pop\n      pop\n      jump\t// out\n        /* \"#utility.yul\":4175:4235   */\n    tag_49:\n        /* \"#utility.yul\":4203:4206   */\n      0x00\n        /* \"#utility.yul\":4224:4229   */\n      dup2\n        /* \"#utility.yul\":4217:4229   */\n      swap1\n      pop\n        /* \"#utility.yul\":4175:4235   */\n      swap2\n      swap1\n      pop\n      jump\t// out\n        /* \"#utility.yul\":4241:4383   */\n    tag_50:\n        /* \"#utility.yul\":4291:4300   */\n      0x00\n        /* \"#utility.yul\":4324:4377   */\n      tag_106\n        /* \"#utility.yul\":4342:4376   */\n      tag_107\n        /* \"#utility.yul\":4351:4375   */\n      tag_108\n        /* \"#utility.yul\":4369:4374   */\n      dup5\n        /* \"#utility.yul\":4351:4375   */\n      tag_39\n      jump\t// in\n    tag_108:\n        /* \"#utility.yul\":4342:4376   */\n      tag_49\n      jump\t// in\n    tag_107:\n        /* \"#utility.yul\":4324:4377   */\n      tag_39\n      jump\t// in\n    tag_106:\n        /* \"#utility.yul\":4311:4377   */\n      swap1\n      pop\n        /* \"#utility.yul\":4241:4383   */\n      swap2\n      swap1\n      pop\n      jump\t// out\n        /* \"#utility.yul\":4389:4464   */\n    tag_51:\n        /* \"#utility.yul\":4432:4435   */\n      0x00\n        /* \"#utility.yul\":4453:4458   */\n      dup2\n        /* \"#utility.yul\":4446:4458   */\n      swap1\n      pop\n        /* \"#utility.yul\":4389:4464   */\n      swap2\n      swap1\n      pop\n      jump\t// out\n        /* \"#utility.yul\":4470:4739   */\n    tag_52:\n        /* \"#utility.yul\":4580:4619   */\n      tag_111\n        /* \"#utility.yul\":4611:4618   */\n      dup4\n        /* \"#utility.yul\":4580:4619   */\n      tag_50\n      jump\t// in\n    tag_111:\n        /* \"#utility.yul\":4641:4732   */\n      tag_112\n        /* \"#utility.yul\":4690:4731   */\n      tag_113\n        /* \"#utility.yul\":4714:4730   */\n      dup3\n        /* \"#utility.yul\":4690:4731   */\n      tag_51\n      jump\t// in\n    tag_113:\n        /* \"#utility.yul\":4682:4688   */\n      dup5\n        /* \"#utility.yul\":4675:4679   */\n      dup5\n        /* \"#utility.yul\":4669:4680   */\n      sload\n        /* \"#utility.yul\":4641:4732   */\n      tag_48\n      jump\t// in\n    tag_112:\n        /* \"#utility.yul\":4635:4639   */\n      dup3\n        /* \"#utility.yul\":4628:4733   */\n      sstore\n        /* \"#utility.yul\":4546:4739   */\n      pop\n        /* \"#utility.yul\":4470:4739   */\n      pop\n      pop\n      pop\n      jump\t// out\n        /* \"#utility.yul\":4745:4818   */\n    tag_53:\n        /* \"#utility.yul\":4790:4793   */\n      0x00\n        /* \"#utility.yul\":4745:4818   */\n      swap1\n      jump\t// out\n        /* \"#utility.yul\":4824:5013   */\n    tag_54:\n        /* \"#utility.yul\":4901:4933   */\n      tag_116\n      tag_53\n      jump\t// in\n    tag_116:\n        /* \"#utility.yul\":4942:5007   */\n      tag_117\n        /* \"#utility.yul\":5000:5006   */\n      dup2\n        /* \"#utility.yul\":4992:4998   */\n      dup5\n        /* \"#utility.yul\":4986:4990   */\n      dup5\n        /* \"#utility.yul\":4942:5007   */\n      tag_52\n      jump\t// in\n    tag_117:\n        /* \"#utility.yul\":4877:5013   */\n      pop\n        /* \"#utility.yul\":4824:5013   */\n      pop\n      pop\n      jump\t// out\n        /* \"#utility.yul\":5019:5205   */\n    tag_55:\n        /* \"#utility.yul\":5079:5199   */\n    tag_119:\n        /* \"#utility.yul\":5096:5099   */\n      dup2\n        /* \"#utility.yul\":5089:5094   */\n      dup2\n        /* \"#utility.yul\":5086:5100   */\n      lt\n        /* \"#utility.yul\":5079:5199   */\n      iszero\n      tag_121\n      jumpi\n        /* \"#utility.yul\":5150:5189   */\n      tag_122\n        /* \"#utility.yul\":5187:5188   */\n      0x00\n        /* \"#utility.yul\":5180:5185   */\n      dup3\n        /* \"#utility.yul\":5150:5189   */\n      tag_54\n      jump\t// in\n    tag_122:\n        /* \"#utility.yul\":5123:5124   */\n      0x01\n        /* \"#utility.yul\":5116:5121   */\n      dup2\n        /* \"#utility.yul\":5112:5125   */\n      add\n        /* \"#utility.yul\":5103:5125   */\n      swap1\n      pop\n        /* \"#utility.yul\":5079:5199   */\n      jump(tag_119)\n    tag_121:\n        /* \"#utility.yul\":5019:5205   */\n      pop\n      pop\n      jump\t// out\n        /* \"#utility.yul\":5211:5754   */\n    tag_56:\n        /* \"#utility.yul\":5312:5314   */\n      0x1f\n        /* \"#utility.yul\":5307:5310   */\n      dup3\n        /* \"#utility.yul\":5304:5315   */\n      gt\n        /* \"#utility.yul\":5301:5747   */\n      iszero\n      tag_124\n      jumpi\n        /* \"#utility.yul\":5346:5384   */\n      tag_125\n        /* \"#utility.yul\":5378:5383   */\n      dup2\n        /* \"#utility.yul\":5346:5384   */\n      tag_45\n      jump\t// in\n    tag_125:\n        /* \"#utility.yul\":5430:5459   */\n      tag_126\n        /* \"#utility.yul\":5448:5458   */\n      dup5\n        /* \"#utility.yul\":5430:5459   */\n      tag_46\n      jump\t// in\n    tag_126:\n        /* \"#utility.yul\":5420:5428   */\n      dup2\n        /* \"#utility.yul\":5416:5460   */\n      add\n        /* \"#utility.yul\":5613:5615   */\n      0x20\n        /* \"#utility.yul\":5601:5611   */\n      dup6\n        /* \"#utility.yul\":5598:5616   */\n      lt\n        /* \"#utility.yul\":5595:5644   */\n      iszero\n      tag_127\n      jumpi\n        /* \"#utility.yul\":5634:5642   */\n      dup2\n        /* \"#utility.yul\":5619:5642   */\n      swap1\n      pop\n        /* \"#utility.yul\":5595:5644   */\n    tag_127:\n        /* \"#utility.yul\":5657:5737   */\n      tag_128\n        /* \"#utility.yul\":5713:5735   */\n      tag_129\n        /* \"#utility.yul\":5731:5734   */\n      dup6\n        /* \"#utility.yul\":5713:5735   */\n      tag_46\n      jump\t// in\n    tag_129:\n        /* \"#utility.yul\":5703:5711   */\n      dup4\n        /* \"#utility.yul\":5699:5736   */\n      add\n        /* \"#utility.yul\":5686:5697   */\n      dup3\n        /* \"#utility.yul\":5657:5737   */\n      tag_55\n      jump\t// in\n    tag_128:\n        /* \"#utility.yul\":5316:5747   */\n      pop\n      pop\n        /* \"#utility.yul\":5301:5747   */\n    tag_124:\n        /* \"#utility.yul\":5211:5754   */\n      pop\n      pop\n      pop\n      jump\t// out\n        /* \"#utility.yul\":5760:5877   */\n    tag_57:\n        /* \"#utility.yul\":5814:5822   */\n      0x00\n        /* \"#utility.yul\":5864:5869   */\n      dup3\n        /* \"#utility.yul\":5858:5862   */\n      dup3\n        /* \"#utility.yul\":5854:5870   */\n      shr\n        /* \"#utility.yul\":5833:5870   */\n      swap1\n      pop\n        /* \"#utility.yul\":5760:5877   */\n      swap3\n      swap2\n      pop\n      pop\n      jump\t// out\n        /* \"#utility.yul\":5883:6052   */\n    tag_58:\n        /* \"#utility.yul\":5927:5933   */\n      0x00\n        /* \"#utility.yul\":5960:6011   */\n      tag_132\n        /* \"#utility.yul\":6008:6009   */\n      0x00\n        /* \"#utility.yul\":6004:6010   */\n      not\n        /* \"#utility.yul\":5996:6001   */\n      dup5\n        /* \"#utility.yul\":5993:5994   */\n      0x08\n        /* \"#utility.yul\":5989:6002   */\n      mul\n        /* \"#utility.yul\":5960:6011   */\n      tag_57\n      jump\t// in\n    tag_132:\n        /* \"#utility.yul\":5956:6012   */\n      not\n        /* \"#utility.yul\":6041:6045   */\n      dup1\n        /* \"#utility.yul\":6035:6039   */\n      dup4\n        /* \"#utility.yul\":6031:6046   */\n      and\n        /* \"#utility.yul\":6021:6046   */\n      swap2\n      pop\n        /* \"#utility.yul\":5934:6052   */\n      pop\n        /* \"#utility.yul\":5883:6052   */\n      swap3\n      swap2\n      pop\n      pop\n      jump\t// out\n        /* \"#utility.yul\":6057:6352   */\n    tag_59:\n        /* \"#utility.yul\":6133:6137   */\n      0x00\n        /* \"#utility.yul\":6279:6308   */\n      tag_134\n        /* \"#utility.yul\":6304:6307   */\n      dup4\n        /* \"#utility.yul\":6298:6302   */\n      dup4\n        /* \"#utility.yul\":6279:6308   */\n      tag_58\n      jump\t// in\n    tag_134:\n        /* \"#utility.yul\":6271:6308   */\n      swap2\n      pop\n        /* \"#utility.yul\":6341:6344   */\n      dup3\n        /* \"#utility.yul\":6338:6339   */\n      0x02\n        /* \"#utility.yul\":6334:6345   */\n      mul\n        /* \"#utility.yul\":6328:6332   */\n      dup3\n        /* \"#utility.yul\":6325:6346   */\n      or\n        /* \"#utility.yul\":6317:6346   */\n      swap1\n      pop\n        /* \"#utility.yul\":6057:6352   */\n      swap3\n      swap2\n      pop\n      pop\n      jump\t// out\n        /* \"#utility.yul\":6357:7752   */\n    tag_28:\n        /* \"#utility.yul\":6474:6511   */\n      tag_136\n        /* \"#utility.yul\":6507:6510   */\n      dup3\n        /* \"#utility.yul\":6474:6511   */\n      tag_31\n      jump\t// in\n    tag_136:\n        /* \"#utility.yul\":6576:6594   */\n      0xffffffffffffffff\n        /* \"#utility.yul\":6568:6574   */\n      dup2\n        /* \"#utility.yul\":6565:6595   */\n      gt\n        /* \"#utility.yul\":6562:6618   */\n      iszero\n      tag_137\n      jumpi\n        /* \"#utility.yul\":6598:6616   */\n      tag_138\n      tag_44\n      jump\t// in\n    tag_138:\n        /* \"#utility.yul\":6562:6618   */\n    tag_137:\n        /* \"#utility.yul\":6642:6680   */\n      tag_139\n        /* \"#utility.yul\":6674:6678   */\n      dup3\n        /* \"#utility.yul\":6668:6679   */\n      sload\n        /* \"#utility.yul\":6642:6680   */\n      tag_20\n      jump\t// in\n    tag_139:\n        /* \"#utility.yul\":6727:6794   */\n      tag_140\n        /* \"#utility.yul\":6787:6793   */\n      dup3\n        /* \"#utility.yul\":6779:6785   */\n      dup3\n        /* \"#utility.yul\":6773:6777   */\n      dup6\n        /* \"#utility.yul\":6727:6794   */\n      tag_56\n      jump\t// in\n    tag_140:\n        /* \"#utility.yul\":6821:6822   */\n      0x00\n        /* \"#utility.yul\":6845:6849   */\n      0x20\n        /* \"#utility.yul\":6832:6849   */\n      swap1\n      pop\n        /* \"#utility.yul\":6877:6879   */\n      0x1f\n        /* \"#utility.yul\":6869:6875   */\n      dup4\n        /* \"#utility.yul\":6866:6880   */\n      gt\n        /* \"#utility.yul\":6894:6895   */\n      0x01\n        /* \"#utility.yul\":6889:7507   */\n      dup2\n      eq\n      tag_142\n      jumpi\n        /* \"#utility.yul\":7551:7552   */\n      0x00\n        /* \"#utility.yul\":7568:7574   */\n      dup5\n        /* \"#utility.yul\":7565:7642   */\n      iszero\n      tag_143\n      jumpi\n        /* \"#utility.yul\":7617:7626   */\n      dup3\n        /* \"#utility.yul\":7612:7615   */\n      dup8\n        /* \"#utility.yul\":7608:7627   */\n      add\n        /* \"#utility.yul\":7602:7628   */\n      mload\n        /* \"#utility.yul\":7593:7628   */\n      swap1\n      pop\n        /* \"#utility.yul\":7565:7642   */\n    tag_143:\n        /* \"#utility.yul\":7668:7735   */\n      tag_144\n        /* \"#utility.yul\":7728:7734   */\n      dup6\n        /* \"#utility.yul\":7721:7726   */\n      dup3\n        /* \"#utility.yul\":7668:7735   */\n      tag_59\n      jump\t// in\n    tag_144:\n        /* \"#utility.yul\":7662:7666   */\n      dup7\n        /* \"#utility.yul\":7655:7736   */\n      sstore\n        /* \"#utility.yul\":7524:7746   */\n      pop\n        /* \"#utility.yul\":6859:7746   */\n      jump(tag_141)\n        /* \"#utility.yul\":6889:7507   */\n    tag_142:\n        /* \"#utility.yul\":6941:6945   */\n      0x1f\n        /* \"#utility.yul\":6937:6946   */\n      not\n        /* \"#utility.yul\":6929:6935   */\n      dup5\n        /* \"#utility.yul\":6925:6947   */\n      and\n        /* \"#utility.yul\":6975:7012   */\n      tag_145\n        /* \"#utility.yul\":7007:7011   */\n      dup7\n        /* \"#utility.yul\":6975:7012   */\n      tag_45\n      jump\t// in\n    tag_145:\n        /* \"#utility.yul\":7034:7035   */\n      0x00\n        /* \"#utility.yul\":7048:7256   */\n    tag_146:\n        /* \"#utility.yul\":7062:7069   */\n      dup3\n        /* \"#utility.yul\":7059:7060   */\n      dup2\n        /* \"#utility.yul\":7056:7070   */\n      lt\n        /* \"#utility.yul\":7048:7256   */\n      iszero\n      tag_148\n      jumpi\n        /* \"#utility.yul\":7141:7150   */\n      dup5\n        /* \"#utility.yul\":7136:7139   */\n      dup10\n        /* \"#utility.yul\":7132:7151   */\n      add\n        /* \"#utility.yul\":7126:7152   */\n      mload\n        /* \"#utility.yul\":7118:7124   */\n      dup3\n        /* \"#utility.yul\":7111:7153   */\n      sstore\n        /* \"#utility.yul\":7192:7193   */\n      0x01\n        /* \"#utility.yul\":7184:7190   */\n      dup3\n        /* \"#utility.yul\":7180:7194   */\n      add\n        /* \"#utility.yul\":7170:7194   */\n      swap2\n      pop\n        /* \"#utility.yul\":7239:7241   */\n      0x20\n        /* \"#utility.yul\":7228:7237   */\n      dup6\n        /* \"#utility.yul\":7224:7242   */\n      add\n        /* \"#utility.yul\":7211:7242   */\n      swap5\n      pop\n        /* \"#utility.yul\":7085:7089   */\n      0x20\n        /* \"#utility.yul\":7082:7083   */\n      dup2\n        /* \"#utility.yul\":7078:7090   */\n      add\n        /* \"#utility.yul\":7073:7090   */\n      swap1\n      pop\n        /* \"#utility.yul\":7048:7256   */\n      jump(tag_146)\n    tag_148:\n        /* \"#utility.yul\":7284:7290   */\n      dup7\n        /* \"#utility.yul\":7275:7282   */\n      dup4\n        /* \"#utility.yul\":7272:7291   */\n      lt\n        /* \"#utility.yul\":7269:7448   */\n      iszero\n      tag_149\n      jumpi\n        /* \"#utility.yul\":7342:7351   */\n      dup5\n        /* \"#utility.yul\":7337:7340   */\n      dup10\n        /* \"#utility.yul\":7333:7352   */\n      add\n        /* \"#utility.yul\":7327:7353   */\n      mload\n        /* \"#utility.yul\":7385:7433   */\n      tag_150\n        /* \"#utility.yul\":7427:7431   */\n      0x1f\n        /* \"#utility.yul\":7419:7425   */\n      dup10\n        /* \"#utility.yul\":7415:7432   */\n      and\n        /* \"#utility.yul\":7404:7413   */\n      dup3\n        /* \"#utility.yul\":7385:7433   */\n      tag_58\n      jump\t// in\n    tag_150:\n        /* \"#utility.yul\":7377:7383   */\n      dup4\n        /* \"#utility.yul\":7370:7434   */\n      sstore\n        /* \"#utility.yul\":7292:7448   */\n      pop\n        /* \"#utility.yul\":7269:7448   */\n    tag_149:\n        /* \"#utility.yul\":7494:7495   */\n      0x01\n        /* \"#utility.yul\":7490:7491   */\n      0x02\n        /* \"#utility.yul\":7482:7488   */\n      dup9\n        /* \"#utility.yul\":7478:7492   */\n      mul\n        /* \"#utility.yul\":7474:7496   */\n      add\n        /* \"#utility.yul\":7468:7472   */\n      dup9\n        /* \"#utility.yul\":7461:7497   */\n      sstore\n        /* \"#utility.yul\":6896:7507   */\n      pop\n      pop\n      pop\n        /* \"#utility.yul\":6859:7746   */\n    tag_141:\n      pop\n        /* \"#utility.yul\":6449:7752   */\n      pop\n      pop\n      pop\n        /* \"#utility.yul\":6357:7752   */\n      pop\n      pop\n      jump\t// out\n\n    auxdata: 0xa2646970667358221220d8a6af6c65ffed3c7086cbb3ba9ff775dc610f628667a53574e32e775e854a6064736f6c63430008160033\n}\n",
				"bytecode": {
					"linkReferences": {},
					"object": "608060405260055f55348015610013575f80fd5b5061063f806100215f395ff3fe608060405234801561000f575f80fd5b506004361061003f575f3560e01c8063492bfa18146100435780639507d39a14610061578063d4da005a14610091575b5f80fd5b61004b6100af565b6040516100589190610269565b60405180910390f35b61007b600480360381019061007691906102c0565b61013b565b6040516100889190610269565b60405180910390f35b6100996101da565b6040516100a691906102fa565b60405180910390f35b600180546100bc90610340565b80601f01602080910402602001604051908101604052809291908181526020018280546100e890610340565b80156101335780601f1061010a57610100808354040283529160200191610133565b820191905f5260205f20905b81548152906001019060200180831161011657829003601f168201915b505050505081565b60606005820361018f576040518060400160405280601b81526020017f486579207468652076616c7565206f66206d754e756d2069732035000000000081525060019081610189919061053a565b506101d5565b6040518060400160405280600581526020017f4e6f742035000000000000000000000000000000000000000000000000000000815250600190816101d3919061053a565b505b919050565b5f5481565b5f81519050919050565b5f82825260208201905092915050565b5f5b838110156102165780820151818401526020810190506101fb565b5f8484015250505050565b5f601f19601f8301169050919050565b5f61023b826101df565b61024581856101e9565b93506102558185602086016101f9565b61025e81610221565b840191505092915050565b5f6020820190508181035f8301526102818184610231565b905092915050565b5f80fd5b5f819050919050565b61029f8161028d565b81146102a9575f80fd5b50565b5f813590506102ba81610296565b92915050565b5f602082840312156102d5576102d4610289565b5b5f6102e2848285016102ac565b91505092915050565b6102f48161028d565b82525050565b5f60208201905061030d5f8301846102eb565b92915050565b7f4e487b71000000000000000000000000000000000000000000000000000000005f52602260045260245ffd5b5f600282049050600182168061035757607f821691505b60208210810361036a57610369610313565b5b50919050565b7f4e487b71000000000000000000000000000000000000000000000000000000005f52604160045260245ffd5b5f819050815f5260205f209050919050565b5f6020601f8301049050919050565b5f82821b905092915050565b5f600883026103f97fffffffffffffffffffffffffffffffffffffffffffffffffffffffffffffffff826103be565b61040386836103be565b95508019841693508086168417925050509392505050565b5f819050919050565b5f61043e6104396104348461028d565b61041b565b61028d565b9050919050565b5f819050919050565b61045783610424565b61046b61046382610445565b8484546103ca565b825550505050565b5f90565b61047f610473565b61048a81848461044e565b505050565b5b818110156104ad576104a25f82610477565b600181019050610490565b5050565b601f8211156104f2576104c38161039d565b6104cc846103af565b810160208510156104db578190505b6104ef6104e7856103af565b83018261048f565b50505b505050565b5f82821c905092915050565b5f6105125f19846008026104f7565b1980831691505092915050565b5f61052a8383610503565b9150826002028217905092915050565b610543826101df565b67ffffffffffffffff81111561055c5761055b610370565b5b6105668254610340565b6105718282856104b1565b5f60209050601f8311600181146105a2575f8415610590578287015190505b61059a858261051f565b865550610601565b601f1984166105b08661039d565b5f5b828110156105d7578489015182556001820191506020850194506020810190506105b2565b868310156105f457848901516105f0601f891682610503565b8355505b6001600288020188555050505b50505050505056fea2646970667358221220d8a6af6c65ffed3c7086cbb3ba9ff775dc610f628667a53574e32e775e854a6064736f6c63430008160033",
					"opcodes": "PUSH1 0x80 PUSH1 0x40 MSTORE PUSH1 0x5 PUSH0 SSTORE CALLVALUE DUP1 ISZERO PUSH2 0x13 JUMPI PUSH0 DUP1 REVERT JUMPDEST POP PUSH2 0x63F DUP1 PUSH2 0x21 PUSH0 CODECOPY PUSH0 RETURN INVALID PUSH1 0x80 PUSH1 0x40 MSTORE CALLVALUE DUP1 ISZERO PUSH2 0xF JUMPI PUSH0 DUP1 REVERT JUMPDEST POP PUSH1 0x4 CALLDATASIZE LT PUSH2 0x3F JUMPI PUSH0 CALLDATALOAD PUSH1 0xE0 SHR DUP1 PUSH4 0x492BFA18 EQ PUSH2 0x43 JUMPI DUP1 PUSH4 0x9507D39A EQ PUSH2 0x61 JUMPI DUP1 PUSH4 0xD4DA005A EQ PUSH2 0x91 JUMPI JUMPDEST PUSH0 DUP1 REVERT JUMPDEST PUSH2 0x4B PUSH2 0xAF JUMP JUMPDEST PUSH1 0x40 MLOAD PUSH2 0x58 SWAP2 SWAP1 PUSH2 0x269 JUMP JUMPDEST PUSH1 0x40 MLOAD DUP1 SWAP2 SUB SWAP1 RETURN JUMPDEST PUSH2 0x7B PUSH1 0x4 DUP1 CALLDATASIZE SUB DUP2 ADD SWAP1 PUSH2 0x76 SWAP2 SWAP1 PUSH2 0x2C0 JUMP JUMPDEST PUSH2 0x13B JUMP JUMPDEST PUSH1 0x40 MLOAD PUSH2 0x88 SWAP2 SWAP1 PUSH2 0x269 JUMP JUMPDEST PUSH1 0x40 MLOAD DUP1 SWAP2 SUB SWAP1 RETURN JUMPDEST PUSH2 0x99 PUSH2 0x1DA JUMP JUMPDEST PUSH1 0x40 MLOAD PUSH2 0xA6 SWAP2 SWAP1 PUSH2 0x2FA JUMP JUMPDEST PUSH1 0x40 MLOAD DUP1 SWAP2 SUB SWAP1 RETURN JUMPDEST PUSH1 0x1 DUP1 SLOAD PUSH2 0xBC SWAP1 PUSH2 0x340 JUMP JUMPDEST DUP1 PUSH1 0x1F ADD PUSH1 0x20 DUP1 SWAP2 DIV MUL PUSH1 0x20 ADD PUSH1 0x40 MLOAD SWAP1 DUP2 ADD PUSH1 0x40 MSTORE DUP1 SWAP3 SWAP2 SWAP1 DUP2 DUP2 MSTORE PUSH1 0x20 ADD DUP3 DUP1 SLOAD PUSH2 0xE8 SWAP1 PUSH2 0x340 JUMP JUMPDEST DUP1 ISZERO PUSH2 0x133 JUMPI DUP1 PUSH1 0x1F LT PUSH2 0x10A JUMPI PUSH2 0x100 DUP1 DUP4 SLOAD DIV MUL DUP4 MSTORE SWAP2 PUSH1 0x20 ADD SWAP2 PUSH2 0x133 JUMP JUMPDEST DUP3 ADD SWAP2 SWAP1 PUSH0 MSTORE PUSH1 0x20 PUSH0 KECCAK256 SWAP1 JUMPDEST DUP2 SLOAD DUP2 MSTORE SWAP1 PUSH1 0x1 ADD SWAP1 PUSH1 0x20 ADD DUP1 DUP4 GT PUSH2 0x116 JUMPI DUP3 SWAP1 SUB PUSH1 0x1F AND DUP3 ADD SWAP2 JUMPDEST POP POP POP POP POP DUP2 JUMP JUMPDEST PUSH1 0x60 PUSH1 0x5 DUP3 SUB PUSH2 0x18F JUMPI PUSH1 0x40 MLOAD DUP1 PUSH1 0x40 ADD PUSH1 0x40 MSTORE DUP1 PUSH1 0x1B DUP2 MSTORE PUSH1 0x20 ADD PUSH32 0x486579207468652076616C7565206F66206D754E756D20697320350000000000 DUP2 MSTORE POP PUSH1 0x1 SWAP1 DUP2 PUSH2 0x189 SWAP2 SWAP1 PUSH2 0x53A JUMP JUMPDEST POP PUSH2 0x1D5 JUMP JUMPDEST PUSH1 0x40 MLOAD DUP1 PUSH1 0x40 ADD PUSH1 0x40 MSTORE DUP1 PUSH1 0x5 DUP2 MSTORE PUSH1 0x20 ADD PUSH32 0x4E6F742035000000000000000000000000000000000000000000000000000000 DUP2 MSTORE POP PUSH1 0x1 SWAP1 DUP2 PUSH2 0x1D3 SWAP2 SWAP1 PUSH2 0x53A JUMP JUMPDEST POP JUMPDEST SWAP2 SWAP1 POP JUMP JUMPDEST PUSH0 SLOAD DUP2 JUMP JUMPDEST PUSH0 DUP2 MLOAD SWAP1 POP SWAP2 SWAP1 POP JUMP JUMPDEST PUSH0 DUP3 DUP3 MSTORE PUSH1 0x20 DUP3 ADD SWAP1 POP SWAP3 SWAP2 POP POP JUMP JUMPDEST PUSH0 JUMPDEST DUP4 DUP2 LT ISZERO PUSH2 0x216 JUMPI DUP1 DUP3 ADD MLOAD DUP2 DUP5 ADD MSTORE PUSH1 0x20 DUP2 ADD SWAP1 POP PUSH2 0x1FB JUMP JUMPDEST PUSH0 DUP5 DUP5 ADD MSTORE POP POP POP POP JUMP JUMPDEST PUSH0 PUSH1 0x1F NOT PUSH1 0x1F DUP4 ADD AND SWAP1 POP SWAP2 SWAP1 POP JUMP JUMPDEST PUSH0 PUSH2 0x23B DUP3 PUSH2 0x1DF JUMP JUMPDEST PUSH2 0x245 DUP2 DUP6 PUSH2 0x1E9 JUMP JUMPDEST SWAP4 POP PUSH2 0x255 DUP2 DUP6 PUSH1 0x20 DUP7 ADD PUSH2 0x1F9 JUMP JUMPDEST PUSH2 0x25E DUP2 PUSH2 0x221 JUMP JUMPDEST DUP5 ADD SWAP2 POP POP SWAP3 SWAP2 POP POP JUMP JUMPDEST PUSH0 PUSH1 0x20 DUP3 ADD SWAP1 POP DUP2 DUP2 SUB PUSH0 DUP4 ADD MSTORE PUSH2 0x281 DUP2 DUP5 PUSH2 0x231 JUMP JUMPDEST SWAP1 POP SWAP3 SWAP2 POP POP JUMP JUMPDEST PUSH0 DUP1 REVERT JUMPDEST PUSH0 DUP2 SWAP1 POP SWAP2 SWAP1 POP JUMP JUMPDEST PUSH2 0x29F DUP2 PUSH2 0x28D JUMP JUMPDEST DUP2 EQ PUSH2 0x2A9 JUMPI PUSH0 DUP1 REVERT JUMPDEST POP JUMP JUMPDEST PUSH0 DUP2 CALLDATALOAD SWAP1 POP PUSH2 0x2BA DUP2 PUSH2 0x296 JUMP JUMPDEST SWAP3 SWAP2 POP POP JUMP JUMPDEST PUSH0 PUSH1 0x20 DUP3 DUP5 SUB SLT ISZERO PUSH2 0x2D5 JUMPI PUSH2 0x2D4 PUSH2 0x289 JUMP JUMPDEST JUMPDEST PUSH0 PUSH2 0x2E2 DUP5 DUP3 DUP6 ADD PUSH2 0x2AC JUMP JUMPDEST SWAP2 POP POP SWAP3 SWAP2 POP POP JUMP JUMPDEST PUSH2 0x2F4 DUP2 PUSH2 0x28D JUMP JUMPDEST DUP3 MSTORE POP POP JUMP JUMPDEST PUSH0 PUSH1 0x20 DUP3 ADD SWAP1 POP PUSH2 0x30D PUSH0 DUP4 ADD DUP5 PUSH2 0x2EB JUMP JUMPDEST SWAP3 SWAP2 POP POP JUMP JUMPDEST PUSH32 0x4E487B7100000000000000000000000000000000000000000000000000000000 PUSH0 MSTORE PUSH1 0x22 PUSH1 0x4 MSTORE PUSH1 0x24 PUSH0 REVERT JUMPDEST PUSH0 PUSH1 0x2 DUP3 DIV SWAP1 POP PUSH1 0x1 DUP3 AND DUP1 PUSH2 0x357 JUMPI PUSH1 0x7F DUP3 AND SWAP2 POP JUMPDEST PUSH1 0x20 DUP3 LT DUP2 SUB PUSH2 0x36A JUMPI PUSH2 0x369 PUSH2 0x313 JUMP JUMPDEST JUMPDEST POP SWAP2 SWAP1 POP JUMP JUMPDEST PUSH32 0x4E487B7100000000000000000000000000000000000000000000000000000000 PUSH0 MSTORE PUSH1 0x41 PUSH1 0x4 MSTORE PUSH1 0x24 PUSH0 REVERT JUMPDEST PUSH0 DUP2 SWAP1 POP DUP2 PUSH0 MSTORE PUSH1 0x20 PUSH0 KECCAK256 SWAP1 POP SWAP2 SWAP1 POP JUMP JUMPDEST PUSH0 PUSH1 0x20 PUSH1 0x1F DUP4 ADD DIV SWAP1 POP SWAP2 SWAP1 POP JUMP JUMPDEST PUSH0 DUP3 DUP3 SHL SWAP1 POP SWAP3 SWAP2 POP POP JUMP JUMPDEST PUSH0 PUSH1 0x8 DUP4 MUL PUSH2 0x3F9 PUSH32 0xFFFFFFFFFFFFFFFFFFFFFFFFFFFFFFFFFFFFFFFFFFFFFFFFFFFFFFFFFFFFFFFF DUP3 PUSH2 0x3BE JUMP JUMPDEST PUSH2 0x403 DUP7 DUP4 PUSH2 0x3BE JUMP JUMPDEST SWAP6 POP DUP1 NOT DUP5 AND SWAP4 POP DUP1 DUP7 AND DUP5 OR SWAP3 POP POP POP SWAP4 SWAP3 POP POP POP JUMP JUMPDEST PUSH0 DUP2 SWAP1 POP SWAP2 SWAP1 POP JUMP JUMPDEST PUSH0 PUSH2 0x43E PUSH2 0x439 PUSH2 0x434 DUP5 PUSH2 0x28D JUMP JUMPDEST PUSH2 0x41B JUMP JUMPDEST PUSH2 0x28D JUMP JUMPDEST SWAP1 POP SWAP2 SWAP1 POP JUMP JUMPDEST PUSH0 DUP2 SWAP1 POP SWAP2 SWAP1 POP JUMP JUMPDEST PUSH2 0x457 DUP4 PUSH2 0x424 JUMP JUMPDEST PUSH2 0x46B PUSH2 0x463 DUP3 PUSH2 0x445 JUMP JUMPDEST DUP5 DUP5 SLOAD PUSH2 0x3CA JUMP JUMPDEST DUP3 SSTORE POP POP POP POP JUMP JUMPDEST PUSH0 SWAP1 JUMP JUMPDEST PUSH2 0x47F PUSH2 0x473 JUMP JUMPDEST PUSH2 0x48A DUP2 DUP5 DUP5 PUSH2 0x44E JUMP JUMPDEST POP POP POP JUMP JUMPDEST JUMPDEST DUP2 DUP2 LT ISZERO PUSH2 0x4AD JUMPI PUSH2 0x4A2 PUSH0 DUP3 PUSH2 0x477 JUMP JUMPDEST PUSH1 0x1 DUP2 ADD SWAP1 POP PUSH2 0x490 JUMP JUMPDEST POP POP JUMP JUMPDEST PUSH1 0x1F DUP3 GT ISZERO PUSH2 0x4F2 JUMPI PUSH2 0x4C3 DUP2 PUSH2 0x39D JUMP JUMPDEST PUSH2 0x4CC DUP5 PUSH2 0x3AF JUMP JUMPDEST DUP2 ADD PUSH1 0x20 DUP6 LT ISZERO PUSH2 0x4DB JUMPI DUP2 SWAP1 POP JUMPDEST PUSH2 0x4EF PUSH2 0x4E7 DUP6 PUSH2 0x3AF JUMP JUMPDEST DUP4 ADD DUP3 PUSH2 0x48F JUMP JUMPDEST POP POP JUMPDEST POP POP POP JUMP JUMPDEST PUSH0 DUP3 DUP3 SHR SWAP1 POP SWAP3 SWAP2 POP POP JUMP JUMPDEST PUSH0 PUSH2 0x512 PUSH0 NOT DUP5 PUSH1 0x8 MUL PUSH2 0x4F7 JUMP JUMPDEST NOT DUP1 DUP4 AND SWAP2 POP POP SWAP3 SWAP2 POP POP JUMP JUMPDEST PUSH0 PUSH2 0x52A DUP4 DUP4 PUSH2 0x503 JUMP JUMPDEST SWAP2 POP DUP3 PUSH1 0x2 MUL DUP3 OR SWAP1 POP SWAP3 SWAP2 POP POP JUMP JUMPDEST PUSH2 0x543 DUP3 PUSH2 0x1DF JUMP JUMPDEST PUSH8 0xFFFFFFFFFFFFFFFF DUP2 GT ISZERO PUSH2 0x55C JUMPI PUSH2 0x55B PUSH2 0x370 JUMP JUMPDEST JUMPDEST PUSH2 0x566 DUP3 SLOAD PUSH2 0x340 JUMP JUMPDEST PUSH2 0x571 DUP3 DUP3 DUP6 PUSH2 0x4B1 JUMP JUMPDEST PUSH0 PUSH1 0x20 SWAP1 POP PUSH1 0x1F DUP4 GT PUSH1 0x1 DUP2 EQ PUSH2 0x5A2 JUMPI PUSH0 DUP5 ISZERO PUSH2 0x590 JUMPI DUP3 DUP8 ADD MLOAD SWAP1 POP JUMPDEST PUSH2 0x59A DUP6 DUP3 PUSH2 0x51F JUMP JUMPDEST DUP7 SSTORE POP PUSH2 0x601 JUMP JUMPDEST PUSH1 0x1F NOT DUP5 AND PUSH2 0x5B0 DUP7 PUSH2 0x39D JUMP JUMPDEST PUSH0 JUMPDEST DUP3 DUP2 LT ISZERO PUSH2 0x5D7 JUMPI DUP5 DUP10 ADD MLOAD DUP3 SSTORE PUSH1 0x1 DUP3 ADD SWAP2 POP PUSH1 0x20 DUP6 ADD SWAP5 POP PUSH1 0x20 DUP2 ADD SWAP1 POP PUSH2 0x5B2 JUMP JUMPDEST DUP7 DUP4 LT ISZERO PUSH2 0x5F4 JUMPI DUP5 DUP10 ADD MLOAD PUSH2 0x5F0 PUSH1 0x1F DUP10 AND DUP3 PUSH2 0x503 JUMP JUMPDEST DUP4 SSTORE POP JUMPDEST PUSH1 0x1 PUSH1 0x2 DUP9 MUL ADD DUP9 SSTORE POP POP POP JUMPDEST POP POP POP POP POP POP JUMP INVALID LOG2 PUSH5 0x6970667358 0x22 SLT KECCAK256 0xD8 0xA6 0xAF PUSH13 0x65FFED3C7086CBB3BA9FF775DC PUSH2 0xF62 DUP7 PUSH8 0xA53574E32E775E85 0x4A PUSH1 0x64 PUSH20 0x6F6C634300081600330000000000000000000000 "
				},
				"gasEstimates": {
					"creation": {
						"codeDepositCost": "319800",
						"executionCost": "22458",
						"totalCost": "342258"
					},
					"external": {
						"get(uint256)": "infinite",
						"myNum()": "2446",
						"myString()": "infinite"
					}
				},
				"methodIdentifiers": {
					"get(uint256)": "9507d39a",
					"myNum()": "d4da005a",
					"myString()": "492bfa18"
				}
			},
			"storageLayout": {
				"storage": [
					{
						"astId": 4,
						"contract": "Solidityprogramming/ifelseInsolidity.sol:ifelse",
						"label": "myNum",
						"offset": 0,
						"slot": "0",
						"type": "t_uint256"
					},
					{
						"astId": 6,
						"contract": "Solidityprogramming/ifelseInsolidity.sol:ifelse",
						"label": "myString",
						"offset": 0,
						"slot": "1",
						"type": "t_string_storage"
					}
				],
				"types": {
					"t_string_storage": {
						"encoding": "bytes",
						"label": "string",
						"numberOfBytes": "32"
					},
					"t_uint256": {
						"encoding": "inplace",
						"label": "uint256",
						"numberOfBytes": "32"
					}
				}
			},
			"userdoc": {
				"kind": "user",
				"methods": {},
				"version": 1
			}
		}
	}
}