{
	"data": {
		"bytecode": {
			"linkReferences": {},
			"object": "608060405234801561000f575f80fd5b5061025f8061001d5f395ff3fe608060405234801561000f575f80fd5b506004361061004a575f3560e01c80630354cdca1461004e5780630f166ad41461006e57806323fd0e401461008c578063a2e62045146100aa575b5f80fd5b6100566100c8565b6040516100659392919061017b565b60405180910390f35b6100766100fc565b60405161008391906101b0565b60405180910390f35b61009461010a565b6040516100a191906101b0565b60405180910390f35b6100b261010f565b6040516100bf91906101b0565b60405180910390f35b5f805f806101599050805f81905550602d816100e491906101f6565b90505f60019050805f54839450945094505050909192565b5f8061015990508091505090565b5f5481565b5f806101599050805f819055505f5491505090565b5f73ffffffffffffffffffffffffffffffffffffffff82169050919050565b5f61014d82610124565b9050919050565b61015d81610143565b82525050565b5f819050919050565b61017581610163565b82525050565b5f60608201905061018e5f830186610154565b61019b602083018561016c565b6101a8604083018461016c565b949350505050565b5f6020820190506101c35f83018461016c565b92915050565b7f4e487b71000000000000000000000000000000000000000000000000000000005f52601160045260245ffd5b5f61020082610163565b915061020b83610163565b9250828201905080821115610223576102226101c9565b5b9291505056fea264697066735822122087588c843302c7bd2ec572c39f21d814705e6b3a24c9311e2738efeee9c2d1db64736f6c63430008160033",
			"opcodes": "PUSH1 0x80 PUSH1 0x40 MSTORE CALLVALUE DUP1 ISZERO PUSH2 0xF JUMPI PUSH0 DUP1 REVERT JUMPDEST POP PUSH2 0x25F DUP1 PUSH2 0x1D PUSH0 CODECOPY PUSH0 RETURN INVALID PUSH1 0x80 PUSH1 0x40 MSTORE CALLVALUE DUP1 ISZERO PUSH2 0xF JUMPI PUSH0 DUP1 REVERT JUMPDEST POP PUSH1 0x4 CALLDATASIZE LT PUSH2 0x4A JUMPI PUSH0 CALLDATALOAD PUSH1 0xE0 SHR DUP1 PUSH4 0x354CDCA EQ PUSH2 0x4E JUMPI DUP1 PUSH4 0xF166AD4 EQ PUSH2 0x6E JUMPI DUP1 PUSH4 0x23FD0E40 EQ PUSH2 0x8C JUMPI DUP1 PUSH4 0xA2E62045 EQ PUSH2 0xAA JUMPI JUMPDEST PUSH0 DUP1 REVERT JUMPDEST PUSH2 0x56 PUSH2 0xC8 JUMP JUMPDEST PUSH1 0x40 MLOAD PUSH2 0x65 SWAP4 SWAP3 SWAP2 SWAP1 PUSH2 0x17B JUMP JUMPDEST PUSH1 0x40 MLOAD DUP1 SWAP2 SUB SWAP1 RETURN JUMPDEST PUSH2 0x76 PUSH2 0xFC JUMP JUMPDEST PUSH1 0x40 MLOAD PUSH2 0x83 SWAP2 SWAP1 PUSH2 0x1B0 JUMP JUMPDEST PUSH1 0x40 MLOAD DUP1 SWAP2 SUB SWAP1 RETURN JUMPDEST PUSH2 0x94 PUSH2 0x10A JUMP JUMPDEST PUSH1 0x40 MLOAD PUSH2 0xA1 SWAP2 SWAP1 PUSH2 0x1B0 JUMP JUMPDEST PUSH1 0x40 MLOAD DUP1 SWAP2 SUB SWAP1 RETURN JUMPDEST PUSH2 0xB2 PUSH2 0x10F JUMP JUMPDEST PUSH1 0x40 MLOAD PUSH2 0xBF SWAP2 SWAP1 PUSH2 0x1B0 JUMP JUMPDEST PUSH1 0x40 MLOAD DUP1 SWAP2 SUB SWAP1 RETURN JUMPDEST PUSH0 DUP1 PUSH0 DUP1 PUSH2 0x159 SWAP1 POP DUP1 PUSH0 DUP2 SWAP1 SSTORE POP PUSH1 0x2D DUP2 PUSH2 0xE4 SWAP2 SWAP1 PUSH2 0x1F6 JUMP JUMPDEST SWAP1 POP PUSH0 PUSH1 0x1 SWAP1 POP DUP1 PUSH0 SLOAD DUP4 SWAP5 POP SWAP5 POP SWAP5 POP POP POP SWAP1 SWAP2 SWAP3 JUMP JUMPDEST PUSH0 DUP1 PUSH2 0x159 SWAP1 POP DUP1 SWAP2 POP POP SWAP1 JUMP JUMPDEST PUSH0 SLOAD DUP2 JUMP JUMPDEST PUSH0 DUP1 PUSH2 0x159 SWAP1 POP DUP1 PUSH0 DUP2 SWAP1 SSTORE POP PUSH0 SLOAD SWAP2 POP POP SWAP1 JUMP JUMPDEST PUSH0 PUSH20 0xFFFFFFFFFFFFFFFFFFFFFFFFFFFFFFFFFFFFFFFF DUP3 AND SWAP1 POP SWAP2 SWAP1 POP JUMP JUMPDEST PUSH0 PUSH2 0x14D DUP3 PUSH2 0x124 JUMP JUMPDEST SWAP1 POP SWAP2 SWAP1 POP JUMP JUMPDEST PUSH2 0x15D DUP2 PUSH2 0x143 JUMP JUMPDEST DUP3 MSTORE POP POP JUMP JUMPDEST PUSH0 DUP2 SWAP1 POP SWAP2 SWAP1 POP JUMP JUMPDEST PUSH2 0x175 DUP2 PUSH2 0x163 JUMP JUMPDEST DUP3 MSTORE POP POP JUMP JUMPDEST PUSH0 PUSH1 0x60 DUP3 ADD SWAP1 POP PUSH2 0x18E PUSH0 DUP4 ADD DUP7 PUSH2 0x154 JUMP JUMPDEST PUSH2 0x19B PUSH1 0x20 DUP4 ADD DUP6 PUSH2 0x16C JUMP JUMPDEST PUSH2 0x1A8 PUSH1 0x40 DUP4 ADD DUP5 PUSH2 0x16C JUMP JUMPDEST SWAP5 SWAP4 POP POP POP POP JUMP JUMPDEST PUSH0 PUSH1 0x20 DUP3 ADD SWAP1 POP PUSH2 0x1C3 PUSH0 DUP4 ADD DUP5 PUSH2 0x16C JUMP JUMPDEST SWAP3 SWAP2 POP POP JUMP JUMPDEST PUSH32 0x4E487B7100000000000000000000000000000000000000000000000000000000 PUSH0 MSTORE PUSH1 0x11 PUSH1 0x4 MSTORE PUSH1 0x24 PUSH0 REVERT JUMPDEST PUSH0 PUSH2 0x200 DUP3 PUSH2 0x163 JUMP JUMPDEST SWAP2 POP PUSH2 0x20B DUP4 PUSH2 0x163 JUMP JUMPDEST SWAP3 POP DUP3 DUP3 ADD SWAP1 POP DUP1 DUP3 GT ISZERO PUSH2 0x223 JUMPI PUSH2 0x222 PUSH2 0x1C9 JUMP JUMPDEST JUMPDEST SWAP3 SWAP2 POP POP JUMP INVALID LOG2 PUSH5 0x6970667358 0x22 SLT KECCAK256 DUP8 PC DUP13 DUP5 CALLER MUL 0xC7 0xBD 0x2E 0xC5 PUSH19 0xC39F21D814705E6B3A24C9311E2738EFEEE9C2 0xD1 0xDB PUSH5 0x736F6C6343 STOP ADDMOD AND STOP CALLER "
		},
		"gasEstimates": {
			"creation": {
				"codeDepositCost": "121400",
				"executionCost": "163",
				"totalCost": "121563"
			},
			"external": {
				"local()": "345",
				"myNumber()": "2446",
				"update()": "24601",
				"updatewadd()": "infinite"
			}
		},
		"methodIdentifiers": {
			"local()": "0f166ad4",
			"myNumber()": "23fd0e40",
			"update()": "a2e62045",
			"updatewadd()": "0354cdca"
		}
	},
	"abi": [
		{
			"inputs": [],
			"name": "local",
			"outputs": [
				{
					"internalType": "uint256",
					"name": "",
					"type": "uint256"
				}
			],
			"stateMutability": "pure",
			"type": "function"
		},
		{
			"inputs": [],
			"name": "myNumber",
			"outputs": [
				{
					"internalType": "uint256",
					"name": "",
					"type": "uint256"
				}
			],
			"stateMutability": "view",
			"type": "function"
		},
		{
			"inputs": [],
			"name": "update",
			"outputs": [
				{
					"internalType": "uint256",
					"name": "",
					"type": "uint256"
				}
			],
			"stateMutability": "nonpayable",
			"type": "function"
		},
		{
			"inputs": [],
			"name": "updatewadd",
			"outputs": [
				{
					"internalType": "address",
					"name": "",
					"type": "address"
				},
				{
					"internalType": "uint256",
					"name": "",
					"type": "uint256"
				},
				{
					"internalType": "uint256",
					"name": "",
					"type": "uint256"
				}
			],
			"stateMutability": "nonpayable",
			"type": "function"
		}
	]
}