{
	"data": {
		"bytecode": {
			"linkReferences": {},
			"object": "608060405260025f556007600155348015610018575f80fd5b50610266806100265f395ff3fe608060405234801561000f575f80fd5b506004361061003e575f3560e01c80623470a7146100425780634717f97c14610061578063a4f6b57214610080575b5f80fd5b61004a61009f565b604051610058929190610168565b60405180910390f35b6100696100f5565b604051610077929190610168565b60405180910390f35b610088610104565b604051610096929190610168565b60405180910390f35b5f805f601490505f601e90505f81836100b891906101bc565b90505f82846100c791906101fd565b90506005846100d691906101fd565b93506007836100e591906101fd565b9250818195509550505050509091565b5f805f54600154915091509091565b5f805f601490505f601e9050808261011c91906101bc565b9350808261012a91906101fd565b925060058261013991906101fd565b915060078161014891906101fd565b905050509091565b5f819050919050565b61016281610150565b82525050565b5f60408201905061017b5f830185610159565b6101886020830184610159565b9392505050565b7f4e487b71000000000000000000000000000000000000000000000000000000005f52601160045260245ffd5b5f6101c682610150565b91506101d183610150565b92508282026101df81610150565b915082820484148315176101f6576101f561018f565b5b5092915050565b5f61020782610150565b915061021283610150565b925082820190508082111561022a5761022961018f565b5b9291505056fea2646970667358221220c1f7d4ccb510d5322776afd6bc7e3df17c1f0d9cfdc2b1338fa0c14f52aacd3664736f6c63430008160033",
			"opcodes": "PUSH1 0x80 PUSH1 0x40 MSTORE PUSH1 0x2 PUSH0 SSTORE PUSH1 0x7 PUSH1 0x1 SSTORE CALLVALUE DUP1 ISZERO PUSH2 0x18 JUMPI PUSH0 DUP1 REVERT JUMPDEST POP PUSH2 0x266 DUP1 PUSH2 0x26 PUSH0 CODECOPY PUSH0 RETURN INVALID PUSH1 0x80 PUSH1 0x40 MSTORE CALLVALUE DUP1 ISZERO PUSH2 0xF JUMPI PUSH0 DUP1 REVERT JUMPDEST POP PUSH1 0x4 CALLDATASIZE LT PUSH2 0x3E JUMPI PUSH0 CALLDATALOAD PUSH1 0xE0 SHR DUP1 PUSH3 0x3470A7 EQ PUSH2 0x42 JUMPI DUP1 PUSH4 0x4717F97C EQ PUSH2 0x61 JUMPI DUP1 PUSH4 0xA4F6B572 EQ PUSH2 0x80 JUMPI JUMPDEST PUSH0 DUP1 REVERT JUMPDEST PUSH2 0x4A PUSH2 0x9F JUMP JUMPDEST PUSH1 0x40 MLOAD PUSH2 0x58 SWAP3 SWAP2 SWAP1 PUSH2 0x168 JUMP JUMPDEST PUSH1 0x40 MLOAD DUP1 SWAP2 SUB SWAP1 RETURN JUMPDEST PUSH2 0x69 PUSH2 0xF5 JUMP JUMPDEST PUSH1 0x40 MLOAD PUSH2 0x77 SWAP3 SWAP2 SWAP1 PUSH2 0x168 JUMP JUMPDEST PUSH1 0x40 MLOAD DUP1 SWAP2 SUB SWAP1 RETURN JUMPDEST PUSH2 0x88 PUSH2 0x104 JUMP JUMPDEST PUSH1 0x40 MLOAD PUSH2 0x96 SWAP3 SWAP2 SWAP1 PUSH2 0x168 JUMP JUMPDEST PUSH1 0x40 MLOAD DUP1 SWAP2 SUB SWAP1 RETURN JUMPDEST PUSH0 DUP1 PUSH0 PUSH1 0x14 SWAP1 POP PUSH0 PUSH1 0x1E SWAP1 POP PUSH0 DUP2 DUP4 PUSH2 0xB8 SWAP2 SWAP1 PUSH2 0x1BC JUMP JUMPDEST SWAP1 POP PUSH0 DUP3 DUP5 PUSH2 0xC7 SWAP2 SWAP1 PUSH2 0x1FD JUMP JUMPDEST SWAP1 POP PUSH1 0x5 DUP5 PUSH2 0xD6 SWAP2 SWAP1 PUSH2 0x1FD JUMP JUMPDEST SWAP4 POP PUSH1 0x7 DUP4 PUSH2 0xE5 SWAP2 SWAP1 PUSH2 0x1FD JUMP JUMPDEST SWAP3 POP DUP2 DUP2 SWAP6 POP SWAP6 POP POP POP POP POP SWAP1 SWAP2 JUMP JUMPDEST PUSH0 DUP1 PUSH0 SLOAD PUSH1 0x1 SLOAD SWAP2 POP SWAP2 POP SWAP1 SWAP2 JUMP JUMPDEST PUSH0 DUP1 PUSH0 PUSH1 0x14 SWAP1 POP PUSH0 PUSH1 0x1E SWAP1 POP DUP1 DUP3 PUSH2 0x11C SWAP2 SWAP1 PUSH2 0x1BC JUMP JUMPDEST SWAP4 POP DUP1 DUP3 PUSH2 0x12A SWAP2 SWAP1 PUSH2 0x1FD JUMP JUMPDEST SWAP3 POP PUSH1 0x5 DUP3 PUSH2 0x139 SWAP2 SWAP1 PUSH2 0x1FD JUMP JUMPDEST SWAP2 POP PUSH1 0x7 DUP2 PUSH2 0x148 SWAP2 SWAP1 PUSH2 0x1FD JUMP JUMPDEST SWAP1 POP POP POP SWAP1 SWAP2 JUMP JUMPDEST PUSH0 DUP2 SWAP1 POP SWAP2 SWAP1 POP JUMP JUMPDEST PUSH2 0x162 DUP2 PUSH2 0x150 JUMP JUMPDEST DUP3 MSTORE POP POP JUMP JUMPDEST PUSH0 PUSH1 0x40 DUP3 ADD SWAP1 POP PUSH2 0x17B PUSH0 DUP4 ADD DUP6 PUSH2 0x159 JUMP JUMPDEST PUSH2 0x188 PUSH1 0x20 DUP4 ADD DUP5 PUSH2 0x159 JUMP JUMPDEST SWAP4 SWAP3 POP POP POP JUMP JUMPDEST PUSH32 0x4E487B7100000000000000000000000000000000000000000000000000000000 PUSH0 MSTORE PUSH1 0x11 PUSH1 0x4 MSTORE PUSH1 0x24 PUSH0 REVERT JUMPDEST PUSH0 PUSH2 0x1C6 DUP3 PUSH2 0x150 JUMP JUMPDEST SWAP2 POP PUSH2 0x1D1 DUP4 PUSH2 0x150 JUMP JUMPDEST SWAP3 POP DUP3 DUP3 MUL PUSH2 0x1DF DUP2 PUSH2 0x150 JUMP JUMPDEST SWAP2 POP DUP3 DUP3 DIV DUP5 EQ DUP4 ISZERO OR PUSH2 0x1F6 JUMPI PUSH2 0x1F5 PUSH2 0x18F JUMP JUMPDEST JUMPDEST POP SWAP3 SWAP2 POP POP JUMP JUMPDEST PUSH0 PUSH2 0x207 DUP3 PUSH2 0x150 JUMP JUMPDEST SWAP2 POP PUSH2 0x212 DUP4 PUSH2 0x150 JUMP JUMPDEST SWAP3 POP DUP3 DUP3 ADD SWAP1 POP DUP1 DUP3 GT ISZERO PUSH2 0x22A JUMPI PUSH2 0x229 PUSH2 0x18F JUMP JUMPDEST JUMPDEST SWAP3 SWAP2 POP POP JUMP INVALID LOG2 PUSH5 0x6970667358 0x22 SLT KECCAK256 0xC1 0xF7 0xD4 0xCC 0xB5 LT 0xD5 ORIGIN 0x27 PUSH23 0xAFD6BC7E3DF17C1F0D9CFDC2B1338FA0C14F52AACD3664 PUSH20 0x6F6C634300081600330000000000000000000000 "
		},
		"gasEstimates": {
			"creation": {
				"codeDepositCost": "122800",
				"executionCost": "44380",
				"totalCost": "167180"
			},
			"external": {
				"getResults()": "infinite",
				"getResults2()": "infinite",
				"getResults3()": "infinite"
			}
		},
		"methodIdentifiers": {
			"getResults()": "4717f97c",
			"getResults2()": "a4f6b572",
			"getResults3()": "003470a7"
		}
	},
	"abi": [
		{
			"inputs": [],
			"name": "getResults",
			"outputs": [
				{
					"internalType": "uint256",
					"name": "",
					"type": "uint256"
				},
				{
					"internalType": "uint256",
					"name": "",
					"type": "uint256"
				}
			],
			"stateMutability": "view",
			"type": "function"
		},
		{
			"inputs": [],
			"name": "getResults2",
			"outputs": [
				{
					"internalType": "uint256",
					"name": "product",
					"type": "uint256"
				},
				{
					"internalType": "uint256",
					"name": "total",
					"type": "uint256"
				}
			],
			"stateMutability": "view",
			"type": "function"
		},
		{
			"inputs": [],
			"name": "getResults3",
			"outputs": [
				{
					"internalType": "uint256",
					"name": "",
					"type": "uint256"
				},
				{
					"internalType": "uint256",
					"name": "",
					"type": "uint256"
				}
			],
			"stateMutability": "view",
			"type": "function"
		}
	]
}